:400000000080002011000000592600005926000080B500AF024A034B1B68136002F04EFBBC760040FA46004010B5054C237833B9044B13B10448AFF300800123237010BDCE
:400040008081FF1F00000000E04B0000084B10B51BB108480849AFF300800848036803B910BD074B002BFBD0BDE81040184700BF00000000E04B00008481FF1F0881FF1FFB
:400080000000000080B483B000AF78607B6803F108027B685A607B684FF0FF329A607B6803F108027B68DA607B6803F108027B681A617B6800221A600C37BD465DF8047BB1
:4000C000704700BF80B483B000AF78607B6800221A610C37BD465DF8047B704780B485B000AF786039607B685B68FB603B68FA685A60FB689A683B689A60FB689B683A68F8
:400100005A60FB683A689A603B687A681A617B681B685A1C7B681A601437BD465DF8047B704700BF80B485B000AF786039603B681B68BB60BB68B3F1FF3F03D17B681B692B
:40014000FB600CE07B680833FB6002E0FB685B68FB60FB685B681A68BB689A42F6D9FB685A683B685A603B685B683A689A603B68FA689A60FB683A685A603B687A681A61A4
:400180007B681B685A1C7B681A601437BD465DF8047B704780B485B000AF78607B681B69FB607B685B687A6892689A607B689B687A6852685A60FB685A687B689A4203D10B
:4001C0007B689A68FB685A607B6800221A61FB681B685A1EFB681A60FB681B6818461437BD465DF8047B704780B584B000AF786039607B68FB6001F0D3FBFB681A68FB6857
:40020000DB6BF968096C01FB03F31A44FB685A60FB6800229A63FB681A68FB689A60FB681A68FB68DB6B013BF968096C01FB03F31A44FB68DA60FB68FF2283F84420FB681E
:40024000FF2283F845203B68002B14D1FB681B69002B1AD0FB681033184600F0D9FF0346002B12D00C4B4FF080521A60BFF34F8FBFF36F8F09E0FB6810331846FFF702FFA6
:40028000FB6824331846FFF7FDFE01F0A1FB012318461037BD4680BD04ED00E090B58BB002AFF860B9601346FB71BB68002B02D10023FB6104E0FB68BA6802FB03F3FB610F
:4002C000FB694833184601F0FDFBB861BB69002B0BD0BB6948337B61FC79BB690093F868B9687A69234600F005F8BB6918462437BD4690BD80B584B000AFF860B9607A60A4
:40030000FB70BB68002B03D1BB69BA691A6002E0BB697A681A60BB69FA68DA63BB69BA681A64B8690121FFF75FFF1037BD4680BD80B582B000AF78607B68002B0ED07B68AB
:4003400000225A607B6800221A607B680022DA60786800210022002300F01CF80837BD4680BD00BF80B586B000AF0346FB7101237B6100233B61FB79786939691A46FFF780
:400380008DFFF860F868FFF7D3FFFB6818461837BD4680BD80B58AB000AFF860B9607A603B6000237B62FB683B6201F0F9FA3B6A9A6B3B6ADB6B9A4202D33B68022B29D1E9
:4003C000386AB9683A6800F0CDFAF8613B6A5B6A002B10D03B6A2433184600F019FF0346002B13D0414B4FF080521A60BFF34F8FBFF36F8F0AE0FB69002B07D03B4B4FF0EE
:4004000080521A60BFF34F8FBFF36F8F01F0E0FA012367E07B68002B03D101F0D9FA002360E07B6A002B06D107F11403184600F045FF01237B6201F0CBFA00F021FD01F0B3
:40044000AFFA3B6A93F84430DBB25BB2B3F1FF3F03D13B6A002283F844203B6A93F84530DBB25BB2B3F1FF3F03D13B6A002283F8452001F0ADFA07F114023B1D10461946EA
:4004800000F032FF0346002B24D1386A00F064FB0346002B18D03B6A03F110027B681046194600F09FFE386A00F0EEFA00F0F6FC0346002B15D10D4B4FF080521A60BFF34A
:4004C0004F8FBFF36F8F0CE0386A00F0DDFA00F0E5FC6AE7386A00F0D7FA00F0DFFC002300E062E718462837BD4680BD04ED00E080B58CB000AFF860B9607A603B60FB6846
:40050000BB62EFF311824FF0A00383F31188BFF36F8FBFF34F8FFA61BB61FB697B62BB6A9A6BBB6ADB6B9A4202D33B68022B2CD1BB6A93F8453087F82330B86AB9683A6851
:4005400000F010FA97F92330B3F1FF3F12D1BB6A5B6A002B16D0BB6A2433184600F058FE0346002B0ED07B68002B0BD07B6801221A6007E097F823300133DBB2DAB2BB6AC8
:4005800083F845200123FB6201E00023FB627B6A7B617B6983F31188FB6A18463037BD4680BD00BF80B58AB000AFF860B9607A6000237B62FB683B6201F0F2F93B6A9B6BAC
:4005C000FB61FB69002B1FD0386AB96800F036FAFB695A1E3B6A9A633B6A1B69002B0FD03B6A1033184600F013FE0346002B07D03E4B4FF080521A60BFF34F8FBFF36F8FA7
:4006000001F0E6F901236DE07B68002B03D101F0DFF9002366E07B6A002B06D107F11403184600F04BFE01237B6201F0D1F900F027FC01F0B5F93B6A93F84430DBB25BB22C
:40064000B3F1FF3F03D13B6A002283F844203B6A93F84530DBB25BB2B3F1FF3F03D13B6A002283F8452001F0B3F907F114023B1D1046194600F038FE0346002B24D1386A99
:4006800000F054FA0346002B18D03B6A03F124027B681046194600F0A5FD386A00F0F4F900F0FCFB0346002B1BD1104B4FF080521A60BFF34F8FBFF36F8F12E0386A00F047
:4006C000E3F900F0EBFB77E7386A00F0DDF900F0E5FB386A00F02AFA0346002B01D0002300E069E718462837BD4680BD04ED00E080B58AB000AF7860396000237B627B6824
:40070000FB6100233B6201F04BF9FB699B6BBB61BB69002B24D0BB695A1EFB699A63FB691B68002B04D101F035F80246FB695A60FB691B69002B0FD0FB691033184600F050
:4007400067FD0346002B07D04E4B4FF080521A60BFF34F8FBFF36F8F01F03AF901238CE03B68002B03D101F033F9002385E07B6A002B06D107F10C03184600F09FFD01236F
:400780007B6201F025F900F07BFB01F009F9FB6993F84430DBB25BB2B3F1FF3F03D1FB69002283F84420FB6993F84530DBB25BB2B3F1FF3F03D1FB69002283F8452001F0D1
:4007C00007F907F10C023B461046194600F08CFD0346002B32D1F86900F0A8F90346002B26D0FB691B68002B09D101F0D9F8FB695B68184600F06CFE386201F0E9F8FB6914
:4008000003F124023B681046194600F0EBFCF86900F03AF900F042FB0346002B2CD1194B4FF080521A60BFF34F8FBFF36F8F23E0F86900F029F900F031FB64E7F86900F0F0
:4008400023F900F02BFBF86900F070F90346002B12D03B6A002B0DD001F0A2F8F86900F069F87861FB695B681846796900F018FF01F0AEF8002300E045E718462837BD467F
:4008800080BD00BF04ED00E080B58CB000AFF860B9607A60FB68BB62EFF311824FF0A00383F31188BFF36F8FBFF34F8FBA617B61BB697B62BB6A9B6B3B623B6A002B2DD04D
:4008C000BB6A93F84430FB77B86AB96800F0B6F83B6A5A1EBB6A9A6397F91F30B3F1FF3F12D1BB6A1B69002B15D0BB6A1033184600F08EFC0346002B0DD07B68002B0AD06C
:400900007B6801221A6006E0FB7F0133DBB2DAB2BB6A83F844200123FB6201E00023FB627B6A3B613B6983F31188FB6A18463037BD4680BD80B485B000AF78607B685B6A6E
:40094000002B06D07B681B6B1B68C3F10503FB6001E00023FB60FB6818461437BD465DF8047B704780B586B000AFF860B9607A6000237B61FB689B6B3B61FB681B6C002BFC
:400980000DD1FB681B68002B4FD1FB685B68184600F020FE7861FB6800225A6045E07B68002B1AD1FB689A68FB681B6C1046B9681A4603F0F7FCFB689A68FB681B6C1A44A7
:4009C000FB689A60FB689A68FB685B689A422CD3FB681A68FB689A6027E0FB68DA68FB681B6C1046B9681A4603F0DCFCFB68DA68FB681B6C5B421A44FB68DA60FB68DA68EE
:400A0000FB681B689A4207D2FB685A68FB681B6C5B421A44FB68DA607B68022B05D13B69002B02D03B69013B3B613B695A1CFB689A637B6918461837BD4680BD80B582B0BF
:400A400000AF786039607B681B6C002B19D07B68DA687B681B6C1A447B68DA607B68DA687B685B689A4203D37B681A687B68DA607B68DA687B681B6C386811461A4603F0F6
:400A800091FC0837BD4680BD80B584B000AF786000F086FF7B6893F84530FB7313E07B685B6A002B0AD07B682433184600F0B0FB0346002B03D000F05DFC00E007E0FB7BD4
:400AC000013BDBB2FB7397F90F30002BE7DC7B68FF2283F8452000F07BFF00F061FF7B6893F84430BB7313E07B681B69002B0ED07B681033184600F08BFB0346002B01D0B2
:400B000000F038FCBB7B013BDBB2BB7300E003E097F90E30002BE7DC7B68FF2283F8442000F056FF1037BD4680BD00BF80B584B000AF786000F034FF7B689B6B002B02D17D
:400B40000123FB6001E00023FB6000F041FFFB6818461037BD4680BD80B584B000AF786000F01EFF7B689A6B7B68DB6B9A4202D10123FB6001E00023FB6000F029FFFB6809
:400B800018461037BD4680BD80B58CB004AFF860B9603B601346FB80FB889B00184600F091FF78617B69002B0ED0502000F08AFFF861FB69002B03D0FB697A691A6305E03D
:400BC000786901F011F801E00023FB61FB69002B13D0FA88BB6A0093FB6A0193FB69029300230393F868B9683B6800F00FF8F86900F082F80123BB6102E04FF0FF33BB61CE
:400C0000BB6918462037BD4680BD00BF80B586B000AFF860B9607A603B60BB6A1A6B7B689B001046A5211A4603F0C7FBBB6A1A6B7B6803F18043013B9B0013443B613B69D1
:400C400023F007033B6100237B6113E0BA687B6913441978BA6A7B69134430330A461A71BA687B6913441B78002B00D105E07B6901337B617B690B2BE8D9BB6A002283F8DC
:400C80003F203B6A042B01D904233B62BB6A3A6ADA62BB6A3A6A1A64BB6A00225A64BB6A04331846FFF70EFABB6A18331846FFF709FABB6ABA6A1A613B6AC3F10502BB6A4A
:400CC0009A61BB6ABA6A5A62BB6A00229A64BB6A002283F84C203869F9683A6800F0D2FD0246BB6A1A607B6A002B02D07B6ABA6A1A601837BD4680BD80B582B000AF786055
:400D000000F04EFE2B4B1B6801332A4A13602A4B1B68002B09D1284A7B681360254B1B68012B10D100F03AFB0DE0244B1B68002B09D1214B1B68DA6A7B68DB6A9A4202D884
:400D40001D4A7B6813601E4B1B6801331C4A13607B68DB6A1A46012303FA02F2194B1B681343184A13607B68DA6A13469B0013449B00154A1A447B68043310461946FFF77F
:400D8000ADF900F025FE0D4B1B68002B0ED00A4B1B68DA6A7B68DB6A9A4207D20B4B4FF080521A60BFF34F8FBFF36F8F0837BD4680BD00BF4C82FF1F9C81FF1F5882FF1F1F
:400DC0006882FF1F5482FF1FA081FF1F04ED00E080B584B000AF78600023FB607B68002B08D000F04DF87868002100F0E7FC00F055F8F860FB68002B07D1054B4FF080522E
:400E00001A60BFF34F8FBFF36F8F1037BD4680BD04ED00E080B584B002AF00230093124B01931248124964220023FFF7ADFE78607B68012B14D14FF0A00383F31188BFF371
:400E40006F8FBFF34F8F3B600A4B4FF0FF321A60094B01221A60094B00221A6000F080FD0837BD4680BD00BF7082FF1F8D130000E44B00006C82FF1F5882FF1F5082FF1FAB
:400E800080B400AF044B1B680133034A1360BD465DF8047B704700BF7482FF1F80B584B000AF0023FB600023BB6000F079FD3A4B1B68013B384A1360374B1B68002B63D151
:400EC000364B1B68002B5FD030E0354BDB68DB68FB60FB6818331846FFF75CF9FB6804331846FFF757F9FB68DB6A1A46012303FA02F22C4B1B6813432A4A1360FB68DA6A93
:400F000013469B0013449B00274A1A44FB68043310461946FFF7E2F8FB68DA6A234B1B68DB6A9A4202D3224B01221A601C4B1B68002BCAD1FB68002B01D000F0A9FA1D4B3B
:400F40001B687B607B68002B10D000F037F80346002B02D0164B01221A607B68013B7B607B68002BF1D1134B00221A60104B1B68002B09D00123BB600F4B4FF080521A60F8
:400F8000BFF34F8FBFF36F8F00F022FDBB6818461037BD4680BD00BF7482FF1F4C82FF1F0C82FF1F5482FF1FA081FF1F9C81FF1F6082FF1F5C82FF1F04ED00E080B586B0C9
:400FC00000AF00237B61474B1B68002B79D1464B1B6801333B61444A3B6913603B69002B10D1424B1B68FB60414B1B683F4A13603F4AFB6813603F4B1B6801333D4A136070
:4010000000F046FA3C4B1B683A699A424AD3374B1B681B68002B04D1374B4FF0FF321A6040E0324B1B68DB68DB68BB60BB685B687B603A697B689A4203D22F4A7B6813605E
:4010400030E0BB6804331846FFF7A4F8BB689B6A002B04D0BB6818331846FFF79BF8BB68DB6A1A46012303FA02F2244B1B681343224A1360BB68DA6A13469B0013449B0049
:401080001F4A1A44BB68043310461946FFF726F8BB68DA6A1B4B1B68DB6A9A4201D301237B61B4E7174B1B68DA6A154913469B0013449B000B441B68012B01D901237B6121
:4010C00004E0114B1B6801330F4A13600F4B1B68002B01D001237B617B6918461837BD4680BD00BF7482FF1F5082FF1F0482FF1F0882FF1F6482FF1F6C82FF1F5482FF1F70
:40110000A081FF1F9C81FF1F5C82FF1F6082FF1F80B586B000AF2E4B1B68002B03D02D4B01221A6051E02B4B00221A602A4B1B681B6B7B614FF0A5333B617B691A683B69B6
:401140009A4211D17B6904331A683B699A420BD17B6908331A683B699A4205D17B690C331A683B699A4208D01B4B1A681A4B1B6834331046194600F043FF184B1B687B60E5
:401180007B68B3FA83F3FB70FB78C3F11F03FB60FA6813469B0013449B00114A1344BB60BB685B685A68BB685A60BB685A68BB6808339A4204D1BB685B685A68BB685A6007
:4011C000BB685B68DB68044A13601837BD4680BD7482FF1F6082FF1F9C81FF1F5482FF1FA081FF1F80B582B000AF78603960074B1B68183378681946FEF794FF38680121C4
:4012000000F0DCFA0837BD4680BD00BF9C81FF1F80B584B000AF78607B68DB68DB68BB60BB6818331846FEF7B5FF1E4B1B68002B1ED1BB6804331846FEF7ACFFBB68DB6AC0
:401240001A46012303FA02F2174B1B681343164A1360BB68DA6A13469B0013449B00134A1A44BB68043310461946FEF737FF05E0BB6818330E481946FEF730FFBB68DA6A16
:401280000C4B1B68DB6A9A4205D90123FB600A4B01221A6001E00023FB60FB6818461037BD4680BD7482FF1F5482FF1FA081FF1F0C82FF1F9C81FF1F6082FF1F80B483B0A8
:4012C00000AF7860064B1A687B681A60054B1A687B685A600C37BD465DF8047B704700BF6482FF1F5082FF1F80B586B000AF7860396000F055FB1D4B1B683B617B685B684C
:401300003A69D31AFB603B681B68B3F1FF3F02D100237B6123E07B681A68154B1B689A4207D07B685A683B699A4202D801237B6115E03B681A68FB689A420BD93B681A6889
:40134000FB68D21A3B681A607868FFF7B7FF00237B6104E03B6800221A6001237B6100F037FB7B6918461837BD4680BD5082FF1F6482FF1F80B400AF034B01221A60BD469B
:401380005DF8047B704700BF6082FF1F80B582B000AF786000F040F8FCE700BF80B582B000AF00237B600CE07A6813469B0013449B00114A13441846FEF764FE7B680133E5
:4013C0007B607B68042BEFD90C48FEF75BFE0C48FEF758FE0B48FEF755FE0B48FEF752FE0A48FEF74FFE0A4B044A1A60094B044A1A600837BD4680BDA081FF1F7882FF1F21
:401400008C82FF1F0C82FF1F2082FF1F3882FF1F0482FF1F0882FF1F80B582B000AF19E000F0BEFA0F4BDB68DB687B607B6804331846FEF7AFFE0C4B1B68013B0A4A136087
:401440000A4B1B68013B094A136000F0C1FA786800F00EF8054B1B68002BE1D10837BD4680BD00BF2082FF1F4C82FF1F3482FF1F80B582B000AF78607B681B6B184600F0FE
:40148000B3FB786800F0B0FB0837BD4680BD00BF80B483B000AF0C4B1B681B68002B04D10A4B4FF0FF321A6008E0074B1B68DB68DB687B607B685B68044A13600C37BD4648
:4014C0005DF8047B704700BF0482FF1F6C82FF1F80B584B000AF78607B68BB600023FB607B68002B6BD0BB68DA6A374B1B68DB6A9A425BD2BB689B69002B06DB324B1B6850
:40150000DB6AC3F10502BB689A61BB685969BB68DA6A13469B0013449B002C4A134499423CD1BB6804331846FEF734FE0346002B15D1BB68DA6A254913469B0013449B00B2
:401540000B441B68002B0AD1BB68DB6A1A4601239340DA431E4B1B6813401D4A13601A4B1B68DA6ABB68DA62BB68DB6A1A46012303FA02F2164B1B681343154A1360BB6807
:40158000DA6A13469B0013449B00104A1A44BB68043310461946FEF7A1FD04E00A4B1B68DA6ABB68DA620123FB6008E0BB681A6C054B1B68DB6A9A4201D20123FB60FB688F
:4015C00018461037BD4680BD9C81FF1FA081FF1F5482FF1F80B584B000AF78607B68BB600023FB607B68002B51D0BB685B6C5A1EBB685A64BB68DA6ABB681B6C9A4246D0B7
:40160000BB685B6C002B42D1BB6804331846FEF7C1FD0346002B15D1BB68DA6A1E4913469B0013449B000B441B68002B0AD1BB68DB6A1A4601239340DA43184B1B6813401C
:40164000164A1360BB681A6CBB68DA62BB68DB6AC3F10502BB689A61BB68DB6A1A46012303FA02F20D4B1B6813430C4A1360BB68DA6A13469B0013449B00074A1A44BB6858
:40168000043310461946FEF729FD0123FB60FB6818461037BD4680BDA081FF1F5482FF1F80B586B000AF786039607B683B610123FB607B68002B65D03B691A6C3B689A42B4
:4016C00002D23B687B6102E03B691B6C7B613B69DA6A7B699A4255D03B695A6CFB689A4250D13B69DB6ABB603B697A69DA623B699B69002B04DB7B69C3F105023B699A6160
:401700003B695969BA6813469B0013449B001F4A1344994236D13B6904331846FEF73AFD0346002B15D13B69DA6A184913469B0013449B000B441B68002B0AD13B69DB6AEA
:401740001A4601239340DA43114B1B681340104A13603B69DB6A1A46012303FA02F20C4B1B6813430A4A13603B69DA6A13469B0013449B00054A1A443B6904331046194696
:40178000FEF7ACFC1837BD4680BD00BFA081FF1F5482FF1F80B400AF074B1B68002B04D0054B1B685A6C01325A64034B1B681846BD465DF8047B70479C81FF1F80B584B069
:4017C00000AF78603960284B1B68FB60274B1B6804331846FEF7DEFC0346002B0BD1234B1B68DB6A1A4601239340DA43204B1B6813401F4A13607B68B3F1FF3F0AD13B68C5
:40180000002B07D0194B1B6804331A481946FEF765FC26E0FA687B681344BB60134B1B68BA685A60BA68FB689A4209D2124B1A680E4B1B68043310461946FEF773FC10E0C0
:401840000E4B1A68094B1B68043310461946FEF769FC0B4B1B68BA689A4202D2084ABB6813601037BD4680BD5082FF1F9C81FF1F5482FF1F3882FF1F0882FF1F0482FF1F13
:401880006C82FF1F80B485B000AFF860B9607A60FB68043BFB60FB684FF080721A60FB68043BFB60BB6823F00102FB681A60FB68043BFB60094AFB681A60FB68143BFB6061
:4018C0007A68FB681A60FB68203BFB60FB6818461437BD465DF8047B704700BFE118000080B483B000AF00233B604FF0A00383F31188BFF36F8FBFF34F8F7B6000BF3B687C
:40190000002BFCD00C37BD465DF8047B704700BF074B19680868B0E8F00F80F30988BFF36F8F4FF0000080F311884EF00D0E70479C81FF1FAFF30080AFF30080AFF3008096
:4019400006480068006880F3088862B661B6BFF34F8FBFF36F8F00DF00BF000008ED00E080B500AF0C4A0C4B1B6843F460031360094A094B1B6843F06043136000F088F860
:40198000064B00221A60FFF7DBFFFFF7C1FBFFF7A7FF0023184680BD20ED00E00C81FF1F80B483B000AF4FF0A00383F31188BFF36F8FBFF34F8F7B60044B1B680133034A51
:4019C00013600C37BD465DF8047B70470C81FF1F80B483B000AF094B1B68013B074A1360064B1B68002B04D100237B607B6883F311880C37BD465DF8047B70470C81FF1FCB
:401A0000EFF30980BFF36F8F0D4B1A6820E9F00F10602DE908404FF0A00080F31188FFF777FB4FF0000080F31188BDE8084019680868B0E8F00F80F30988BFF36F8F70475D
:401A40009C81FF1FAFF30080AFF30080AFF3008080B582B000AF4FF0A00383F31188BFF36F8FBFF34F8F7B60FFF7A8FA0346002B03D0064B4FF080521A6000233B603B6887
:401A800083F311880837BD4680BD00BF04ED00E080B400AF084B00221A60084B00221A60074B4BF67F321A60034B07221A60BD465DF8047B704700BF10E000E018E000E0A3
:401AC00014E000E080B588B000AF786000237B61FFF7D6F9404B1B68002B04D100F0BCF83D4B01221A607B68002B0ED008231A467B6813447B607B6803F00703002B04D018
:401B00007B6823F0070308337B607B68002B57D07B6847F6F772934252D8304BBB612F4B1B68FB6104E0FB69BB61FB691B68FB61FB695A687B689A4203D2FB691B68002B6F
:401B4000F1D1FB69264A93423AD0BB691B68082213447B61FB691A68BB691A60FB695A687B68D31A08225200934222D9FA697B681344FB60FB695A687B68D21AFB685A601C
:401B8000FB697A685A60FB685B68BB60134B3B6102E03B691B683B613B691B685A68BB689A42F6D33B691A68FB681A603B69FA681A600C4B1A68FB695B68D31A094A13605E
:401BC000FFF76CF97B69002B01D100F029FA7B6918462037BD4680BDB0020020A0020020A80200201081FF1F80B586B000AF78607B683B617B68002B27D008235B423A69CF
:401C000013443B613B69FB60FFF73AF9FB685B68BB600F4B7B6102E07B691B687B617B691B685A68BB689A42F6D37B691A68FB681A607B69FA681A60FB685A68054B1B6801
:401C40001344044A1360FFF729F91837BD4680BDA00200201081FF1F80B483B000AF0F4B23F007037B600E4A7B6813600C4B00225A600C4B47F6F8725A600A4B00221A6042
:401C80007B683B603B6847F6F8725A603B68054A1A600C37BD465DF8047B7047A882FF1FA0020020A8020020B0B5C2B002AF00F073F93B46184A1C4615460FCD0FC42B68CB
:401CC0001A46228002341B0C2370144B1A683B4610461946402200F0EBF90120FEF742FB02460F4B1A6002230093002301930D480D494FF480620023FEF746FF01230093E3
:401D00000023019309480A494FF480620023FEF73BFFFFF77FF8FEE7EC4B0000B4020020B8020020C91E0000004C0000351D0000144C000080B5C6B000AF3B1D18603B1D31
:401D400000221A600023C7F814310023C7F81031002387F80F31534B1B68184652494FF6FF7200F0CDF90346012B40F09A800123C7F810314D4B1B6818464CF25031FEF705
:401D8000B7FC0346002B00F08C80474B1B7887F80F317AE0434B1B68184643494FF6FF7200F0AEF9D7F81431072B12DC97F90F31312B0ED13C4B1B78D9B23D4AD7F81431FB
:401DC00013440A461A70D7F814310133C7F814315BE0D7F81431032B12DC97F90F31322B0ED1314B1B78D9B2314AD7F8143113440A461A70D7F814310133C7F8143144E025
:401E000007F10C0318462B49294A02F0DFFA254B1A6807F10C0310461946402200F048F997F90F31312B17D123482449204A00F0B9FB214B9A69214B9B6907F10C0108461E
:401E40001F4902F0C3FA174B1A6807F10C0310461946402200F02CF90023C7F814310AE0134AD7F81431134400221A70D7F814310133C7F81431D7F81431402BF0DD0023F4
:401E8000C7F810310023C7F81431D7F81031002B80D1064B1B681846002100220023FEF779FA58E7B402002028030020B80200202C030020384C00006C030020E8020020C9
:401EC0004C4C00000000000080B5C2B000AF3B1D18603B1D00221A60274800F03BFB274800F038FB26494FF00002264BC1E9022323491FA3D3E90023C1E9002320494FF097
:401F00000002214BC1E90423204B1B6818464CF25031FEF7EDFB0346002B25D01648174900F0D6F9144BDB69134A126A9B1A07F10802104616491A4602F048FA154B1A6836
:401F400007F1080310461946402200F0B1F80A480A490B4A00F018FA0C4B1B681846002100220023FEF716FA0A20FEF731FFCBE79A9999999999B93F6C030020E8020020E6
:401F8000100300200000594000408F40B8020020684C0000B402002080B500AF144B154ADA62134B144A9A63114B144ADA6300F0F5FD4FF46140402100F040F800F0DAFF3C
:401FC00001F0C0F801F070FA01F0A2F801F0BEF901F09AF9002001F0F9F901F0B3FA01F08FFA002001F0EEFA01F03CFD80BD00BF0080FF1F11190000011A0000511A00009E
:4020000080B485B000AF786039604FF0A00383F31188BFF36F8FBFF34F8FFB60FEE700BF80B483B000AF4FF0A00383F31188BFF36F8FBFF34F8F7B60FEE700BF80B582B0BA
:4020400000AF78603960386801210022FEF726F90246134B1A6000F011FF124800F0C0FE386801210022FEF719F902460E4B1A6000F0AAFE0D4800F059FE002000F020FEB8
:40208000094B1B68002B05D0054B1B68002B01D0012300E0002318460837BD4680BD00BFC40200208D210000C00200202122000080B586B000AFF860B9601346FB8000237C
:4020C000FB820023FB8214E0FB8ABA6813441B78002B00D111E0FB8ABA6813441B785BB2002019464FF0FF3200F026F8FB8A0133FB82FA8AFB889A42E6D31837BD4680BD55
:4021000080B586B000AFF860B9607A6000237B61084B1B681846B9687A68FEF743FA0346012B01D101237B617B6918461837BD4680BD00BFC402002080B586B000AFF860A3
:402140000B467A60FB7200237B610F4B1A6807F10B03104619467A680023FEF71BF90346012B02D101237B6101E000237B61FFF717FC032000F0A4FDFFF72AFC7B691846E0
:402180001837BD4680BD00BFC002002080B586B000AF00237B600023FB700023BB7000237B6100F059FD0346FB70FB78DBB203F02003002B21D000F061FD0346DBB2BB7081
:4021C000EFF311824FF0A00383F31188BFF36F8FBFF34F8F3A61FB603B697B610E4B1968BA1C3B1D084611461A460023FEF780F97B69BB60BB6883F311887B68002B07D00F
:40220000064B4FF080521A60BFF34F8FBFF36F8F1837BD4680BD00BFC402002004ED00E080B586B000AF00237B600023FB700023BB7000237B6100F053FD0346FB70FB7823
:40224000DBB203F00103002B05D1FB78DBB203F00203002B2AD0EFF311824FF0A00383F31188BFF36F8FBFF34F8F3A61FB603B697B61154B1968BA1C3B1D084611461A468C
:40228000FEF702FB0346012B08D1BB78DBB2184600F032FD012000F013FD02E0002000F00FFD7B69BB60BB6883F311887B68002B07D0064B4FF080521A60BFF34F8FBFF34E
:4022C0006F8F1837BD4680BDC002002004ED00E090B583B000AF786039607B685A687B689B691A447B685A603B685A683B689B691A443B685A607B68DB691A467B681A62D2
:4023000001F004FC02461F4BA3FB02231A0A7B68DA613B68DB691A463B681A6201F0F6FB0246184BA3FB02231A0A3B68DA617B68DA687B689A603B68DA683B689A607B68D6
:402340005C6801F01FF803469B01E2187B68DA603B685C6801F012F903469B01E2183B68DA607B681A697B68DB681A447B681A613B681A693B68DB681A443B681A610C3763
:40238000BD4690BDF11976052DE9B04386B000AFF860B9607A607B68D3E90245FB68DB68184601F033FD02460B462046294601F093FD02460B46904699467B68D3E90045E3
:4023C000FB681B69184601F021FD02460B462046294601F081FD02460B464046494601F0C9FB02460B46904699467B68D3E90445FB68DA68FB689B68D31A184601F006FDC9
:4024000002460B462046294601F066FD02460B4614461D46FB68DB69FA68126A9B1A184601F0E4FC02460B462046294601F054FD02460B464046494601F09CFB02460B469C
:402440001046194601F05AFF03467B617B6913F5803F02DC3E4B7B6106E07B69B3F5803F02DB4FF6FF737B61FB687A695A617B68D3E90245BB68DB68184601F0C7FC024602
:402480000B462046294601F027FD02460B46904699467B68D3E90045BB681B69184601F0B5FC02460B462046294601F015FD02460B464046494601F05DFB02460B46904631
:4024C00099467B68D3E90445BB68DA68BB689B68D31A184601F09AFC02460B462046294601F0FAFC02460B4614461D46BB68DB69BA68126A9B1A184601F078FC02460B46F7
:402500002046294601F0E8FC02460B464046494601F030FB02460B461046194601F0EEFE03467B617B6913F5803F02DC084B7B6106E07B69B3F5803F02DB4FF6FF737B617E
:40254000BB687A695A611837BD46BDE8B08300BF0100FFFF80B582B000AF78607B6800225A607B680022DA607B6800229A607B6800221A617B6800229A617B6800225A6187
:402580007B6800221A6001F0C1FA03461A467B681A6201F0BBFA02467B68DA610837BD4680BD00BF80B48DB000AFF860B9607A607B681B78303BFB627B6801331B78303BE0
:4025C000BB627B6802331B78303B7B627B6803331B78303B3B627B6804331B78303BFB617B6805331B78303BBB617B6806331B78303B7B617B6807331B78303B3B61FB6A5C
:402600004FF47A7202FB03F2BB6A642101FB03F3D1187A6A13469B0013445B00CA183B6A1A44FB689A61FB694FF47A7202FB03F2BB69642101FB03F3D1187A6913469B0047
:4026400013445B00CA183B691A44BB689A613437BD465DF8047B704780B500AF01F076FE03461B680C2B00D1FEE7FEE780B584B000AF78600F4B1A687B6813441A460E4B07
:40268000D31A002B09DC0B4B1B68FB60094B1A687B681344074A136007E001F057FE02460C2313604FF0FF33FB60FB6818461037BD4680BD1481FF1F9803002080B586B011
:4026C00000AF224B7B61224B3B61204B7B6135E03B691B68FB603B695B68BB603B699B683B6000237B600CE0FB681A68BB681A60BB680433BB60FB680433FB607B68043347
:402700007B607A683B689A42EED13B69DB683B6000237B6008E0BB6800221A60BB680433BB607B6804337B607A683B689A42F2D13B6910333B617B69013B7B617B69002B5B
:40274000C6D101F009FEFFF7AFFAFEE701000000144D000080B582B000AF174B174A1A60174A174B1B6843F40073136000237B600FE07B68032B04D8124A7B6852F8233078
:4027800000E0114B11497A6841F822307B6801337B607B682F2BECD90D4B1B78DAB20D4B1A700D4B094A1A6000F02CF90B4B00221A600837BD4680BD0CED00E00004FA0542
:4027C00014ED00E000000000592600000080FF1FBC7600400481FF1F08ED00E00081FF1F80B582B000AF78603960786800213A6801F0E3FD0837BD4680BD00BF80B584B0B0
:4028000000AFF860B9607A60F868B9687A6801F0C9FD1037BD4680BD80B483B000AF0346FB71FEE780B487B000AF7860396000233B6100237B6127E07B699B007A68134445
:402840001B68BB60BB68FB73BB6823F0FF03BB6014E03B695B003A6813441B781A46BB68134419463B695B003A6813445B780B703B6901333B61FB7B013BFB73FB7B002BA3
:40288000E7D17B6901337B617B69242BD4D91C37BD465DF8047B704780B582B000AF364B03221A80354B18221A70354B03221A80344B18221A70344B67221A80334B182235
:4028C0001A70334B02221A704FF0402308221A70304B03221A70304B304A1278D2B21A702F4B10221A802F4B41F251221A800023FB7019237B6014E0FB785B00DAB22A4BAD
:402900001B78DBB203F00103DBB21343DBB203F00303FB704FF4F07001F016F97B68013B7B607B68002B02D0FB78032BE4D17B68002B02D10320FFF76FFF1C4B4FF48072D5
:402940001A801A4B07221A70194B00221A70194B48221A70154B00221A70174B02221A70164A164B1B78DBB243F00703DBB213700837BD4680BD00BF8040004082400040B3
:402980008440004086400040884000408A4000400043004000420040A14600400801004922420040204200402542004004400040064000400840004001400040A243004058
:4029C00080B483B000AF0B4B1B78FB710A4AFB7903F00703DBB21370084AFB791B09DBB21370074B44221A700C37BD465DF8047B704700BFCF0100496E5800406F580040A5
:402A00007658004080B586B000AF72B64E4A4E4B1B78DBB243F00403DBB213700023FB7513E0FA7D13465B0013445B00474A13443B613B691A683B699B889BB210461946D5
:402A4000FFF7CEFEFB7D0133FB75FB7D062BE8D90023FB751CE0FA7D13469B0013445B003B4A1344FB60FB681B68BB60FB685B687B60FB681A7A5B7A1B0213437B807B88EC
:402A8000B86879681A46FFF7B9FEFB7D0133FB75FB7D002BDFD04FF090402E49FFF7C2FE2D4A2D4B1B78DBB243F00203DBB213702A4A2A4B1B78DBB243F00203DBB21370B6
:402AC000274A274B1B78DBB243F04003DBB21370244A244B1B78DBB243F01003DBB21370214822490822FFF789FE214821490822FFF784FE204821490822FFF77FFE204833
:402B000020490822FFF77AFE1F4BC4221A701F4A1E4B1B78DBB243F00803DBB213701C4B61221A70FFF7B8FE194BC1221A70194B01221A70FFF744FF174809490E22FFF768
:402B40005DFE1837BD4680BDE8460040804C0000AC4C0000940000480350014013500140A0430040C243004002510040E00D0048C2510040E80D0048F2510040F00D00489D
:402B800012510040F80D0048DB0E0140224300400048004004000840B043004080B500AF054B1B78002B04D100F008F8024B01221A7000F023F880BDC802002080B400AF89
:402BC000094B72221A70094B20221A70084B06221A70084B47221A70074B03221A70BD465DF8047B704700BF886500408B6400402B6500403B6500408965004080B582B009
:402C000000AF00F0A9FF0346FB71104A0F4B1B78DBB243F02003DBB213700D4A0C4B1B78DBB243F01003DBB213700A4A094B1B78DBB243F01003DBB2137000F02BF9FB7994
:402C4000184600F08DFF0837BD4680BD986500409B6400409965004080B483B000AF064B1B78DBB203F07F03FB71FB7918460C37BD465DF8047B70476B64004080B483B0C0
:402C800000AF0023FB710C4B1B78BB71BB7903F02003002B09D0094B1B78FB71BB7903F01E03002B01D00023FB71FB7918460C37BD465DF8047B70476B64004048640040AE
:402CC00080B483B000AF0346FB71044AFB7913700C37BD465DF8047B704700BF8965004080B400AF034B1B78DBB21846BD465DF8047B70476965004080B483B000AF03465C
:402D0000FB7100BF074B1B78DBB203F00403002BF8D1054AFB7913700C37BD465DF8047B704700BF696500404A65004080B582B000AF786000F03CF8786800F009F805202D
:402D400000F018F800F028F80837BD4680BD00BF80B485B000AF7860054B1B68FB60FB684C337A681A601437BD465DF8047B704708ED00E080B483B000AF0346FB71054AE1
:402D8000FB795B01DBB213700C37BD465DF8047B704700BF03E400E080B400AF034B08221A60BD465DF8047B704700BF00E100E080B400AF034B08221A60BD465DF8047B4D
:402DC000704700BF80E100E080B400AF034B08221A60BD465DF8047B704700BF80E200E080B582B000AF786000F03CF8786800F009F8052000F018F800F028F80837BD465E
:402E000080BD00BF80B485B000AF7860054B1B68FB60FB6848337A681A601437BD465DF8047B704708ED00E080B483B000AF0346FB71054AFB795B01DBB213700C37BD4650
:402E40005DF8047B704700BF02E400E080B400AF034B04221A60BD465DF8047B704700BF00E100E080B400AF034B04221A60BD465DF8047B704700BF80E100E080B400AF21
:402E8000034B04221A60BD465DF8047B704700BF80E200E080B400AF094A094B1B78DBB243F00403DBB21370064A064B1B78DBB243F00403DBB21370BD465DF8047B704708
:402EC000A2430040B243004080B483B000AF0346FB7101BE0C37BD465DF8047B704700BF80B584B000AF03463960FB710F4B1B68FB60FB791F2B02D90020FFF7E5FFFB79B9
:402F000003F01F0310339B00FA6813441B68BB60FB7903F01F0310339B00FA6813443A681A60BB6818461037BD4680BD08ED00E080B582B000AF03460A46FB711346BB718E
:402F4000BB79072B02D90020FFF7BEFFFB791F2B02D90020FFF7B8FFFB7903F01F0303F1604303F56443BA795201D2B21A700837BD4680BD80B500AF054B1B78002B04D13E
:402F800000F008F8024B01221A7000F04BF880BDCA02002080B582B000AF1F4B1B78DBB223F03F03FB711C4AFB7943F00903DBB213701A4A194B1B78DBB243F00103DBB295
:402FC0001370174A164B1B78DBB243F00103DBB213704FF6FF7000F035F84FF6FF7000F04FF87F2000F05CF8002000F069F800F0B3FD0346BB710A4A094B1B78DBB243F005
:403000001003DBB21370BB79184600F0A9FD00F029F80837BD4680BD73640040926400409364004080B400AF054A054B1B78DBB263F07F03DBB21370BD465DF8047B70471C
:403040007364004080B483B000AF0346FB80044AFB8813800C37BD465DF8047B704700BF0468004080B500AF01E000F045F800F037F8034603F01003002BF6D180BD00BF71
:4030800080B483B000AF0346FB80044AFB8813800C37BD465DF8047B704700BF8468004080B483B000AF0346FB80044AFB8813800C37BD465DF8047B704700BF446800405C
:4030C00080B483B000AF0346FB71044AFB7913700C37BD465DF8047B704700BF8364004080B400AF034B1B78DBB21846BD465DF8047B70476364004080B400AF034B1B88F1
:403100009BB21846BD465DF8047B7047A468004080B400AF094A094B1B78DBB243F00103DBB21370064A064B1B78DBB243F00103DBB21370BD465DF8047B7047A24300405E
:40314000B243004080B500AF054B1B78002B04D100F008F8024B01221A7000F04DF880BDCB02002080B582B000AF1F4B1B78DBB223F03F03FB711C4AFB7943F00903DBB203
:4031800013701A4A194B1B78DBB243F00103DBB21370174A164B1B78DBB243F00103DBB213704FF6FF7000F037F84FF6FF7000F051F87F2000F05EF8002000F06BF800F02C
:4031C000CBFC0346BB710B4A0A4B1B78DBB243F01003DBB21370BB79184600F0C1FC00F02BF80837BD4680BD7264004094640040956400409264004080B400AF054A054B63
:403200001B78DBB263F07F03DBB21370BD465DF8047B70477264004080B483B000AF0346FB80044AFB8813800C37BD465DF8047B704700BF0868004080B500AF01E000F0B2
:4032400045F800F037F8034603F01003002BF6D180BD00BF80B483B000AF0346FB80044AFB8813800C37BD465DF8047B704700BF8868004080B483B000AF0346FB80044A8F
:40328000FB8813800C37BD465DF8047B704700BF4868004080B483B000AF0346FB71044AFB7913700C37BD465DF8047B704700BF8264004080B400AF034B1B78DBB2184603
:4032C000BD465DF8047B70476264004080B400AF034B1B889BB21846BD465DF8047B7047A868004080B500AF054B01221A6000200449FFF7F5FD00200721FFF719FE80BD25
:4033000080E100E04934000080B582B000AF0F2000F086F800F074F800F01EFC0346FB71084A084B1B78DBB243F01003DBB21370FB79184600F014FC034B01221A600837EA
:40334000BD4680BD9C64004000E100E080B500AF00F0F6F94FF4004000F01EFA074B00221A60074B1B78002B04D1FFF7BBFF044B01221A70FFF7C8FF80BD00BFD002002094
:40338000CC02002080B582B000AF0D4B01221A6000F012FA0346FB80FB88A3F500439BB2BB80B7F90420074B1B6813443B60064B01221A603B6818460837BD4680BD00BFA6
:4033C00080E100E0D002002000E100E080B582B000AF7860074B01221A604FF4004000F0DBF9054A7B681360044B01221A600837BD4680BD80E100E0D002002000E100E0B1
:4034000080B400AF054B1B78DBB203F00F03DBB21846BD465DF8047B704700BF6C64004080B483B000AF0346FB71FB7943F00703FB71044AFB7913700C37BD465DF8047BA5
:40344000704700BF8C64004080B483B000AF144B1B78FB71FB7903F00103002B07D0114B1B6803F5FF437F330E4A13600AE0FB7903F00203002B05D00A4B1B68A3F5004326
:40348000084A1360FB7903F00403002B02D0054B00221A600C37BD465DF8047B704700BF6C640040D002002080B400AF094A094B1B78DBB243F00203DBB21370064A064BCB
:4034C0001B78DBB243F00203DBB21370BD465DF8047B7047A2430040B243004080B500AF054B02221A6001200449FFF7F9FC01200721FFF71DFD80BD80E100E04136000003
:4035000080B582B000AF0F2000F086F800F074F800F022FB0346FB71084A084B1B78DBB243F01003DBB21370FB79184600F018FB034B02221A600837BD4680BD9564004026
:4035400000E100E080B500AF00F0D0F94FF4004000F0F8F9074B00221A60074B1B78002B04D1FFF7BBFF044B01221A70FFF7C8FF80BD00BFD8020020D402002080B582B0FA
:4035800000AF0D4B02221A6000F0ECF90346FB80FB88A3F500439BB2BB80B7F90420074B1B6813443B60064B02221A603B6818460837BD4680BD00BF80E100E0D8020020E3
:4035C00000E100E080B582B000AF7860074B02221A604FF4004000F0B5F9054A7B681360044B02221A600837BD4680BD80E100E0D802002000E100E080B400AF054B1B7838
:40360000DBB203F00F03DBB21846BD465DF8047B704700BF6564004080B483B000AF0346FB71FB7943F00703FB71044AFB7913700C37BD465DF8047B704700BF85640040D1
:4036400080B483B000AF144B1B78FB71FB7903F00103002B07D0114B1B6803F5FF437F330E4A13600AE0FB7903F00203002B05D00A4B1B68A3F50043084A1360FB7903F09E
:403680000403002B02D0054B00221A600C37BD465DF8047B704700BF65640040D802002080B582B000AF1C4B1B78DBB223F00703FB71194AFB791370174B1B78DBB223F072
:4036C0000303FB71144AFB79137000F0B1F84FF4004000F08DF84FF4004000F05DF8002000F03EF800F04CF84FF4004000F090F800F032FA0346BB71084A084B1B78DBB2DF
:4037000043F01003DBB21370BB79184600F028FA0837BD4680BD00BF7E6400409F64004080B400AF054A054B1B78DBB263F07F03DBB21370BD465DF8047B70477E640040B5
:4037400080B500AF054B1B78002B04D1FFF7A8FF024B01221A70FFF7E3FF80BDDC02002080B483B000AF0346FB71044AFB7913700C37BD465DF8047B704700BF8F64004005
:4037800080B400AF034B1B78DBB21846BD465DF8047B70476F64004080B483B000AF0346FB80044AFB8813800C37BD465DF8047B704700BF1C68004080B400AF044B1B7862
:4037C000044B1B889BB21846BD465DF8047B70470E6400409C68004080B400AF034B1B889BB21846BD465DF8047B70479C68004080B483B000AF0346FB80044AFB88138019
:403800000C37BD465DF8047B704700BF5C68004080B483B000AF0346FB80044AFB8813800C37BD465DF8047B704700BF7C68004080B500AF01E0FFF7CFFFFFF7A1FF03469A
:4038400003F04003002BF6D180BD00BF80B582B000AF1C4B1B78DBB223F00703FB71194AFB791370174B1B78DBB223F00303FB71144AFB79137000F0B1F84FF4004000F03C
:403880008DF84FF4004000F05DF8002000F03EF800F04CF84FF4004000F090F800F05CF90346BB71084A084B1B78DBB243F01003DBB21370BB79184600F052F90837BD4662
:4038C00080BD00BF746500409764004080B400AF054A054B1B78DBB263F07F03DBB21370BD465DF8047B70477465004080B500AF054B1B78002B04D1FFF7A8FF024B012276
:403900001A70FFF7E3FF80BDDD02002080B483B000AF0346FB71044AFB7913700C37BD465DF8047B704700BF8764004080B400AF034B1B78DBB21846BD465DF8047B7047E1
:403940006764004080B483B000AF0346FB80044AFB8813800C37BD465DF8047B704700BF0C68004080B400AF044B1B78044B1B889BB21846BD465DF8047B70470664004020
:403980008C68004080B400AF034B1B889BB21846BD465DF8047B70478C68004080B483B000AF0346FB80044AFB8813800C37BD465DF8047B704700BF4C68004080B483B069
:4039C00000AF0346FB80044AFB8813800C37BD465DF8047B704700BF6C68004080B500AF01E0FFF7CFFFFFF7A1FF034603F04003002BF6D180BD00BF80B582B000AF4FF06B
:403A0000FF3000F05BF84FF0FF3000F071F800F0A3F80346FB710A4A094B1B78DBB243F01003DBB21370FB79184600F099F800F07DF8002000F026F80837BD4680BD00BFCB
:403A40009765004080B400AF054A054B1B78DBB263F07F03DBB21370BD465DF8047B70477565004080B500AF054B1B78002B04D1FFF7C2FF024B01221A70FFF7E3FF80BD4E
:403A8000DE02002080B483B000AF0346FB71044AFB7913700C37BD465DF8047B704700BF8765004080B400AF034B1B78DBB21846BD465DF8047B70476765004080B483B08A
:403AC00000AF7860034A7B6813600C37BD465DF8047B70472465004080B400AF034B1B681846BD465DF8047B704700BF4465004080B483B000AF7860034A7B6813600C37E6
:403B0000BD465DF8047B70470465004080B400AF044B1B78044B1B681846BD465DF8047B704700BF046500404465004080B500AF01E0FFF7D1FFFFF7B5FF034603F00803FE
:403B4000002BF6D180BD00BF0230800803D000BF01380046FCD17047EFF3108072B6704780F31088704700BF81F0004102E000BF83F0004330B54FEA41044FEA430594EACB
:403B8000050F08BF90EA020F1FBF54EA000C55EA020C7FEA645C7FEA655C00F0E2804FEA5454D4EB5555B8BF6D420CDD2C4480EA020281EA030382EA000083EA010180EA98
:403BC000020281EA0303362D88BF30BD11F0004F4FEA01314FF4801C4CEA113102D0404261EB410113F0004F4FEA03334CEA133302D0524263EB430394EA050F00F0A780E5
:403C0000A4F10104D5F1200E0DDB02FA0EFC22FA05F2801841F1000103FA0EF2801843FA05F359410EE0A5F120050EF1200E012A03FA0EFC28BF4CF0020C43FA05F3C01880
:403C400051EBE37101F0004507D54FF0000EDCF1000C7EEB00006EEB0101B1F5801F1BD3B1F5001F0CD349085FEA30004FEA3C0C04F101044FEA445212F5800F80F09A80AD
:403C8000BCF1004F08BF5FEA500C50F1000041EB045141EA050130BD5FEA4C0C404141EB010111F4801FA4F10104E9D191F0000F04BF01460020B1FA81F308BF2033A3F1ED
:403CC0000B03B3F120020CDA0C3208DD02F1140CC2F10C0201FA0CF021FA02F10CE002F11402D8BFC2F1200C01FA02F120FA0CFCDCBF41EA0C019040E41AA2BF01EB045150
:403D0000294330BD6FEA04041F3C1CDA0C340EDC04F11404C4F1200220FA04F001FA02F340EA030021FA04F345EA030130BDC4F10C04C4F1200220FA02F001FA04F340EA49
:403D40000300294630BD21FA04F0294630BD94F0000F83F4801306BF81F480110134013D4EE77FEA645C18BF7FEA655C29D094EA050F08BF90EA020F05D054EA000C04BF80
:403D80001946104630BD91EA030F1EBF0021002030BD5FEA545C05D14000494128BF41F0004130BD14F580043CBF01F5801130BD01F0004545F0FE4141F470014FF000005F
:403DC00030BD7FEA645C1ABF194610467FEA655C1CBF0B46024650EA013406BF52EA033591EA030F41F4002130BD00BF90F0000F04BF0021704730B54FF4806404F13204E9
:403E00004FF000054FF0000150E700BF90F0000F04BF0021704730B54FF4806404F1320410F0004548BF40424FF000013EE700BF42004FEAE2014FEA31014FEA02701FBF63
:403E400012F07F4393F07F4F81F06051704792F0000F14BF93F07F4F704730B54FF4607401F0004521F0004120E700BF50EA010208BF704730B54FF000050AE050EA010293
:403E800008BF704730B511F0004502D5404261EB41014FF4806404F132045FEA915C3FF4DCAE4FF003025FEADC0C18BF03325FEADC0C18BF033202EBDC02C2F1200300FAD4
:403EC00003FC20FA02F001FA03FE40EA0E0021FA02F11444C1E600BF70B54FF0FF0C4CF4E06C1CEA11541DBF1CEA135594EA0C0F95EA0C0F00F0DEF82C4481EA030621EA1F
:403F00004C5123EA4C5350EA013518BF52EA033541F4801143F4801338D0A0FB02CE4FF00005E1FB02E506F00042E0FB03E54FF00006E1FB03569CF0000F18BF4EF0010E3F
:403F4000A4F1FF04B6F5007F64F5407404D25FEA4E0E6D4146EB060642EAC62141EA55514FEAC52040EA5E504FEACE2EB4F1FD0C88BFBCF5E06F1ED8BEF1004F08BF5FEA04
:403F8000500E50F1000041EB045170BD06F0004646EA010140EA020081EA0301B4EB5C04C2BFD4EB0C0541EA045170BD41F480114FF0000E013C00F3AB8014F1360FDEBF59
:403FC000002001F0004170BDC4F10004203C35DA0C341BDC04F11404C4F1200500FA05F320FA04F001FA05F240EA020001F0004221F0004110EBD37021FA04F642EB0601D6
:404000005EEA430E08BF20EAD37070BDC4F10C04C4F1200500FA04F320FA05F001FA04F240EA020001F0004110EBD37041F100015EEA430E08BF20EAD37070BDC4F1200593
:4040400000FA05F24EEA020E20FA04F301FA05F243EA020321FA04F001F0004121FA04F220EA020000EBD3705EEA430E08BF20EAD37070BD94F0000F0FD101F00046400082
:4040800041EB010111F4801F08BF013CF7D041EA060195F0000F18BF704703F00046520043EB030313F4801F08BF013DF7D043EA0603704794EA0C0F0CEA135518BF95EAA4
:4040C0000C0F0CD050EA410618BF52EA4306D1D181EA030101F000414FF0000070BD50EA410606BF1046194652EA430619D094EA0C0F02D150EA013613D195EA0C0F05D1A3
:4041000052EA03361CBF104619460AD181EA030101F0004141F0FE4141F470014FF0000070BD41F0FE4141F4780170BD70B54FF0FF0C4CF4E06C1CEA11541DBF1CEA135581
:4041400094EA0C0F95EA0C0F00F0A7F8A4EB050481EA030E52EA03354FEA013100F088804FEA03334FF0805545EA131343EA12634FEA022245EA111545EA10654FEA002663
:404180000EF000419D4208BF964244F1FD0404F5407402D25B084FEA3202B61A65EB03055B084FEA32024FF480104FF4002CB6EB020E75EB030E22BFB61A754640EA0C00BD
:4041C0005B084FEA3202B6EB020E75EB030E22BFB61A754640EA5C005B084FEA3202B6EB020E75EB030E22BFB61A754640EA9C005B084FEA3202B6EB020E75EB030E22BFE4
:40420000B61A754640EADC0055EA060E18D04FEA051545EA16754FEA06164FEAC30343EA52734FEAC2025FEA1C1CC0D111F4801F0BD141EA00014FF000004FF0004CB6E73D
:4042400011F4801F04BF01430020B4F1FD0C88BFBCF5E06F3FF6AFAEB5EB030C04BFB6EB020C5FEA500C50F1000041EB045170BD0EF0004E4EEA113114EB5C04C2BFD4EBD2
:404280000C0541EA045170BD41F480114FF0000E013C90E645EA060E8DE60CEA135594EA0C0F08BF95EA0C0F3FF43BAF94EA0C0F0AD150EA01347FF434AF95EA0C0F7FF409
:4042C00025AF104619462CE795EA0C0F06D152EA03353FF4FDAE1046194622E750EA410618BF52EA43067FF4C5AE50EA41047FF40DAF52EA43057FF4EBAE12E74FEA41022B
:4043000012F5001215D211D56FF47873B3EB625212D94FEAC12343F0004343EA505311F0004F23FA02F018BF404270474FF00000704750EA013005D111F0004008BF6FF09C
:40434000004070474FF00000704700BF014B1868704700BF7881FF1F0E4B70B51E460E4C0025E41AA410A54204D056F8253098470135F8E700F0BCFC084B094C1E46E41A21
:40438000A4100025A54204D056F8253098470135F8E770BDFC4C0000FC4C0000FC4C0000044D000010B5431E0A44914204D011F8014B03F8014FF8E710BD034602449342B1
:4043C00002D003F8011BFAE7704700000EB400B54FF402719CB0ADF814106FF00041049107914FF6FF711DABADF81610084953F8042B02900690086802A9019300F064F8F7
:40440000029B00221A701CB05DF804EB03B070477881FF1F2DE9F0478E688246B3420C469046994640D38A8912F4906F3AD02568096902236F1A656905EB450595FBF3F539
:404440007B1C4B449D4238BF1D4653050FD5294600F030FB064698B121693A46FFF7A2FFA38923F4906343F08003A38113E02A4600F076FB064670B95046216900F0D6FAB8
:404480000C23CAF80030A3894FF0FF3043F04003A381BDE8F08726613E4426604E466561ED1BA560B14500D24E4632462068414600F0A0FAA36800209B1BA36023681E4457
:4044C0002660BDE8F08700002DE9F0439DB003938B8906461C060D4690460CD50B6953B9402100F0E7FA2860286110B90C233360CCE040236B610023099320238DF8293059
:4045000030238DF82A3043461C4613F8012B1AB9B4EB08090FD002E0252AF5D1F8E73046294642464B46FFF775FF013000F0A980099B4B4409932378002B00F0A280002373
:404540004FF0FF3204930793059206938DF853301A9304F101084446DFF8489121784846052200F039FA08F10108049B30B1C9EB00000122824013430493ECE7D80644BF50
:4045800020228DF85320190744BF2B228DF8532022782A2A02D0079923460EE0039A0134111D12680391002ABBBF524243F0020307920792B8BF04930AE01C4622780133CA
:4045C000303A092A03D80A2000FB0121F5E7079123782E2B1AD163782A2B0AD1039B02341A1D1B680392002BB8BF4FF0FF3305930CE0611C00220C4623780131303B092B87
:4046000003D80A2000FB0232F5E70592DFF8988021784046032200F0DFF938B1049AC8EB00004023834013430493013421781A48062204F101088DF8281000F0CDF988B189
:40464000164B33B9039B073323F007030833039313E003AB0093304604A92A46104BAFF3008007E003AB0093304604A92A460C4B00F092F8421C074603D0099B3B4409931A
:4046800041E7AB895B0601D4099801E04FF0FF301DB0BDE8F08300BFC44C00000000000015440000BA4C0000C04C00002DE9F84391461F468A680B6906469342B8BF134675
:4046C000C9F8003091F843200C46DDF8208012B10133C9F800302368990642BFD9F800300233C9F80030256815F006051CD094F843302268003318BF012392061FD5E11817
:40470000302081F843005A1C94F845102244023382F8431013E03046394604F119020123C047013007D00135E368D9F800209B1A9D42F0DBDBE74FF0FF30BDE8F8833046EC
:40474000394604F14302C0470130F4D02268D9F80050E36802F00602042A08BF5D1B2269A3680CBF25EAE57500259342C4BF9B1AED184FF00009A9450ADA3046394604F122
:404780001A020123C0470130D5D009F10109F2E70020BDE8F88300002DE9FF410C461746227E98466E2A06460A9B01F1430100F0B08012D8632A23D00AD8002A00F0BD80BA
:4047C000582A40F0CC8084F84520DFF804E257E0642A1ED0692A1CD0C1E0732A00F0B18009D86F2A2ED0702A40F0B980226842F0200222603FE0752A24D0782A3BD0AEE0C4
:404800001A6804F14205111D1960136884F84230A9E020681A6810F0800F02D0101D186008E010F0400F02F10400186002D0B2F9003000E01368002B3EDA2D225B4284F8B8
:40484000432039E020681A6810F0800F02D0101D186007E010F0400F02F10400186001D0138800E01368227EDFF864E16F2A0CBF08220A221CE07822DFF858E184F8452043
:404880002268186812F0800F00F104051D6003D1550601D5038800E00368D00744BF42F0200222601BB9226822F0200222601022002084F8430002E0DFF814E10A2265688F
:4048C000002DA8BF2068A560A4BF20F00400206003B965B10D46B3FBF2F002FB10331EF8033005F8013D03460028F4D100E00D46082A0BD12368DA0708D5236962689A4235
:40490000DEBF302305F8013C05F1FF35491B21612EE025681A6815F0800F606903D0151D1D60136808E015F0400F02F104051D60136801D0188000E01860002323610D46DB
:4049400016E01A68111D1960156800212846626800F042F808B1401B6060636804E004F1420584F8422001232361002384F84330CDF800803046214603AA3B46FFF796FEE7
:40498000013002D14FF0FF301FE0304639462A462369C0470130F5D023689B0705D4E068039B9842B8BF18460FE00025E368039A9B1A9D42F3DA3046394604F11902012377
:4049C000C0470130DED00135F0E704B0BDE8F081CB4C0000DC4C000010B5C9B202449042034605D01C7801308C42F8D1184610BD002010BD814210B501EB020301D3421E24
:404A00000BE09842FBD28118D21AD34204D013F8014D01F8014DF8E710BD994204D011F8014B02F8014FF8E710BD000030B500293CD051F8042C0B1F1D49002AB8BF9B18B9
:404A40000A680C4612B95A600B6030BD93420DD219685818904201BF5A5852181A60426823605A6030BD994203D80A4651680029F9D1146815199D420AD11B682344D0180C
:404A80008842136012D10868034413604B680CE002D90C23036030BD1C681819884201BF08684968001918605960536030BD00BFE402002070B5CC1C24F0030408340C2C08
:404AC00038BF0C24002C064603DA0C233360002070BD8C42F9D3204A136810461946A1B10A68121B0ED40B2A03D90A608B188C501FE08B420BBF5A684A6802605A6018BF2D
:404B00000B4616E00B464968E9E7144D2B681BB9304600F04BF828603046214600F046F8421C0346D1D0C51C25F0030585420AD11C6003F10B001A1D20F00700821A0AD031
:404B40005142995070BD3046E91A00F02FF80130BBD02B46ECE770BDE4020020E0020020F8B5074615460E4621B91146BDE8F840FFF7A0BF1AB9FFF759FF2846F8BD00F087
:404B800025F8A8420ED238462946FFF793FF044650B131462A46FFF705FC38463146FFF745FF01E03046F8BD2046F8BD38B5064C0023054608462360FDF758FD431C02D121
:404BC000236803B12B6038BD9003002051F8040C0028BEBF091851F8043CC018043870470000000049444C45000000000A3D3D3D204E45572052554E203D3D3D0A0A0000E7
:404C0000696E697469616C6973652074686520504944000077616974696E6720666F7220612073657269616C2062757320746F20636F6D6520696E0062756666657220723C
:404C40006561642061732025730A00006C65667420696E633A2025690A726967687420696E633A20256900006C65667420776865656C2074696D653A20256C690A000000F0
:404C800020510040500000000140000880080140800700140140000800400140000A004C01400002005001402000000000080140600D0048800000004300232D302B2000A6
:404CC000686C4C006566674546470030313233343536373839414243444546003031323334353637383961626364656600000000F8B500BFF8BC08BC9E4670474D000000C0
:404D000055270000F8B500BFF8BC08BC9E46704729000000284D00000881FF1F78000000188200000000000000000000AAAAAAAAF87F000098030020000000000000000047
:404D4000000000000000000000000000000000000000000000000000B84C00000000000000000000000000000000000000000000000000000000000000000000000000002F
:404D80000000000000000000000000000000000000000000000000001881FF1F0000000000000000000000000000000000000000000000000000000000000000000000003C
:404DC00000000000000000000000000000000000000000000000000000000000000000000000000000000000000000000000000000000000000000000000000000000000B3
:404E00000000000000000000000000000000000000000000000000000000000000000000000000000000000000000000000000000000000000000000000000000000000072
:404E40000000000000000000000000000000000000000000000000000000000000000000000000000000000000000000000000000000000000000000000000000000000032
:404E800000000000000000000000000000000000000000000000000000000000000000000000000000000000000000000000000000000000000000000000000000000000F2
:020000040003F7
:0200000480007A
:400000000252004007640040036500404F0201402F0301405C040140390501406206014047070140150801404C090140410A01403C0B0140430C0140350D0140550E0140BD
:40004000340F01406414014041150140661601404A17014041180140461901405E1A0140461B014005400140094101400A42014001430140044601400347014009480140ED
:4000800002490140014C0140074D01400A5001400151014001016180820D830D850F876F8B388C0F8F6F870D8872890F02010B020E0213011D011E0426042E022F02300125
:4000C00032043402350237013F104050410249FF4AFF4BFF4DA04F04501852805405580459045A045B045F01604062C06440654066C068C06AC06CC06EC0860287029201FE
:400100009302A501AB01B202B302B601B701BF04C010C106C5D0C610C702C81AC9FFCAFFCBFFCDAFCE0FCF04D018D280D405D804D904DA04DB04DF01E040E2C0E440E54095
:40014000E6C0E8C0EAC0ECC0EEC002100681070209020E011540161019081A031E601F2022442640270829082A102D402E40320137423A043E2042014604480849024E01FB
:400180005008521459025A885E805F09710276808480C094C288C4A0CA16CC91CE22D028D214D6DBE602EA040101040C06020703080C0A010E20100B1204142018101E0FD2
:4001C0001F082010240728082A012F043020310232103301340F3504370838083E013F044040410349FF4AFF4BFF4DA04F045018580459045A045C115F01604062C06440E8
:40020000654066C068C06AC06CC06EC083018B02960198019902A201AD02B001B101B302BE01BF04C040C103C5D0C620C710C82AC9FFCAFFCBFFCDAFCE0FCF04D018D40F25
:40024000D604D804D904DA04DB04DD10DF01E040E2C0E440E540E6C0E8C0EAC0ECC0EEC000A4030208820A200B040D200E1010841108168018041A941E80200221212234E8
:4002800027602B022E803080362039023B043E103F0242604301462047014F01562157015D015E885F20674087409240970198869E219F40AC06AF20B210C007C26FC41EA6
:4002C000CA18CC28CEA3D0C3D6F0D880E208EA88EE020103030C0505070A090A0B050D071406190F1D0C1F032003271028052C0630073110330F38024056410449FF4AFFAF
:400300004BFF4DA04F015018580459045A045C115D015F016040628064406540668068406A806C406D206E80800485028D02900192029304940296019C019E029F01A2041C
:40034000A401A602AD02B004B101B203B302B504B908BA08BE01BF04C056C104C543C6C2C70EC81FC9FFCAFFCBFFCDAFCE07CF01D018D40FD804D904DA04DB04DC11DD1134
:40038000DF05E040E280E440E540E680E840EA80EC40ED20EE80000209010A220E10108012201640179019011A201B041E401F03222123102501260827502A402B022C20C3
:4003C00032013340379038803B043E523F0841024502468048404A024B144E024F1050C0521459015A885B2062147B0280408320928C9501970498869A029E80A001A4C0E1
:40040000A604A904AC10AE02B404C008C22DC4DCCA48CC39CEFAD081D23CD60FD806DE08EA0CEE0880148209841F8F01900A9211930298019A06A81FB018B101B407B50207
:40044000D608D804D904DB04DC12DD90DF01024003200505060A08020A080C020E240F0211101446170419021A081B101D041E0621222340251027442C052E2A3102344224
:4004800035023610371439403C203E043F2244204518462047404D204E0154205708588159015A026240630288929314942895409644974899A19E099F05A108A480A52007
:4004C000A619A70AA806AA40AC40AE0CB620C0FCC2FAC4F2CAF0CCF1CEE8D070D230D608D808EC40EE010201059606040768080209FE0B010C0210081210140215C5173A45
:4005000018081A101D7F2010220823012602280229A32B5C2C082D0E2E102FF03006341835FF36013A203F10580459045C015F01820284018801900E940C980E9B019C0C20
:400540009E02A001A402A60CA804AB01AC08B101B201B40EBA02BF01D418D604D804D904DB04DC02DD20DF01000A018002080428078009200B600C800D020E2410441140CC
:4005800013041609170519021A081B401D1B20082480280429822A202F0832483530388039083A403B345AC05E02620C664067888401874089088B8091089320940496C095
:4005C00099809C069D029E04A742AD04AF12C07FC2FEC4FFCA2DCC2ACE06D680D8B0E608000C02300402083C0C01101C11011430160C1E01200223012414262828282A14A3
:400600002C012F0131013201343C360238803E043F01540F5604580459045B045C015D105F018002810882048310851087088A018D088E088F109C049E029F01A002A20452
:40064000A302A402A604A908AB10AF04B001B104B318B408B501B606B702BA80BB08D804D904DC11DF010082012004020510062007010A020C040E42104012201549160479
:40068000188219A01A021D101E221F502082218522202440284229202B402D402F42318037013880390A5C445E205F0265018601910196C09A209B019D03A702A901B721AC
:4006C000C0FBC2B1C4FCCA9DCC88CE0BD6F0D8800201040123012E01340135013E104023410449FF4AFF4BFF4DA04F0150185280580459045A045B045C105D115F016040FC
:40070000628064406540668068406A806C406D206E8083098B048E0290019C019D08A002A401A504A604AF02B002B101B201B308B404B504B702B808BE05BF14C063C104EC
:40074000C52CC630C74EC83BC9FFCAFFCBFFCDAFCE07CF01D018D40FD804D904DA04DB04DC11DD11DF05E040E280E440E540E680E840EA80EC40ED20EE8000080102058004
:4007800006020E400F0210021620170118041A081C101D081E801F102008276929022D802F1037403E203F02401442804302450846804D014E044F06562A5D105E805F099B
:4007C0006608670470027E4089108B01C08CC290C431CA51CC10CEA0D0C7D220D6F0D860DE80050107020A0F0B040F0710FD12021310150418CF19101A301C941D071E6098
:40080000209E210122602302270828302AC92B102C732D07311032FF330F3E043F01404649FF4AFF4BFF4F0150185280580459045A045B045C105D105F01604062406440F3
:400840006540668068806A806C806E8084028596876889C58B3A8C028DA38F5C9002960199FE9A029B01A10EA3F0A402AA04AB01AD7FB206B3FFB401BF04C046C9FFCAFF16
:40088000CBFFCD83CE03CF01D018D280D804D904DA04DB04DC01DF01E040E240E440E540E680E880EA80EC80EE800020062208820A840E200F8810861420172019081D10FF
:4008C0001E201F08202022022720288029882B082E022F0A30043111324034203710380439203B803C803E303F884280468048084C08710176808002818084108510860465
:4009000087408C84921498869A029B109E80A048A306A602AF04B510C0A2C27BC46BCABFCC2FCE7ED081D224E00AE204000704010530060207C9099E0B600C010DCF0E022D
:400940000F301207180419FD1B021F0F21942204236024072A082D73300F33FF3F04404649FF4AFF4BFF4D834E034F015018580459045A045C015F016040624064406540FA
:40098000668068806A806C806E808007810C8302840B8604940C96029710990B9A109B049D07A008A201A30FA50CA60FA701A908AB01AC0CAE01AF10B10FB20FB310B410ED
:4009C000BF04C046C5ECC702C813C9FFCAFFCBFFCD83CE03CF01D018D401D804D904DA04DB04DC11DF01E040E240E440E540E680E880EA80EC80EE8002C0031005080642C6
:400A00000A100B080E800F0810801104138014201502172019181A101D021E802080210122042380272029082A822B042C802E022F023008328033103420364037103902AE
:400A40003C803D043E103F0842804680480849054C08500858405905844086049204961098869A429B109F80A306A502A602A820AA04AB01AD01AE08C0BCC256C47DCA9F12
:400A8000CC3ECE71D081D224D60BE2040002010405020602110F150917061A011B011D0E1E011F0122022402250E27012906320133083602370738803B803E043F045602C5
:400AC0005711580459045B045C225D205F0185208602870589038A028B048F08900194029513970C9C02A113A304A50AA602A714B002B130B201B30FB902BB08BE05D40189
:400B0000D604D804D904DB04DC20DD20DF01003001240509080109080A020B800C200D80101013081440170419041A801D801F0420C0210C2680272028102B802D082E2418
:400B400030C0310832803420350136803704385039043E0A580159245A805F2063806C146D106F21762B77108340920493149428955096409708982099819B049C409E0B3F
:400B80009F11A020A480A608A722C036C2CDC434CA63CCF2CECED62FD80104DC0501062207060C090ED00F0C12031620190C1B031C0C1D101E712101230E241026AC281418
:400BC0002B032C102E402F08301F3310350F36E03A803B203F0440324101450C460E470B481549FF4AFF4BFF4EF04F44500C580459045A045C225D025F0166C06A406B0201
:400C000080188406870F8810890B8B049006910C93019405950C97029A089C039D089F01A418AD07B007B218B30FB80ABE04C003C604C9FFCA07CBFFCC40CD20CEF0CF056F
:400C4000D008D804D904DA04DC11DD02DF01E040E1A8E240E32000C00220040207180AA20C810D100F18101811801410150818021A821B801D081E40222023282504260855
:400C800027102A402B842E403260340135803608384039083F1441144380450848104D044E104F08500853405540564080808240840187028D048F20910893149504964216
:400CC000978099809F08A040A410A608A782B540C075C2FDC427CA1DCCDCCE6AD04EE640E8403002331036403708CCF0594063029F08A402A640AB10D480D640EA208402DF
:400D000086409F08A402A640AD40B301E210E640EE109F08028004088680C00C8A20A804E2040110060483089E049F08AA04C0C0E220E880AD10EC10A620122079808D40C2
:400D4000A620C408DC01E4080007010108010A030C060D010E0210071A031C0600BF00007F020020000C10032003001040000000030100206003000C700C0B00120F8000C6
:400D8000700807001F04600000000F03010F0000003080007C0F03000000202000000001230506000100E00C18FFFFFF62A0F0410C000000000000000404040022020001F0
:400DC0000000000000004002001030100010101200000000000000000000000000000000007F7F004100000040808000800000003C00000000000000000B0B0000000000DE
:400E000000000000000000000000000000000000000000000000000000000000000000000000000000000000000000000000000000000000000000000000000000000000B2
:400E40000000000000000000000000000000000000000000000000000000000000000000000000000000000000000000000000000000000000000000000000000000000072
:400E80000000000000000000000000000000000000000000000000000000000000000000000000000000000000000000000000000000000000000000000000000000000032
:400EC00000000000000000000000000000000000000000000000000000000000000000000000000000000000000000000000000000000000000000000000000000000000F2
:0200000490006A
:0400000000004005B7
:0200000490105A
:04000000BC90ACAF55
:0200000490303A
:02000000268C4C
:0200000490402A
:4000000000000000000000000000000000000000000000000000000000000000000000000000000000000000000000000000000000000000000000000000000000000000C0
:400040000000000000000000000000000000000000000000000000000000000000000000000000000000000000000000000000000000000000000000000000000000000080
:400080000000000000000000000000000000000000000000000000000000000000000000000000000000000000000000000000000000000000000000000000000000000040
:4000C0000000000000000000000000000000000000000000000000000000000000000000000000000000000000000000000000000000000000000000000000000000000000
:0200000490501A
:0C00000000012E16106900012E3936F5A3
:00000001FF